:020000040800F2
:1000000000000220250200087502000875020008A1
:100010007502000875020008750200080000000063
:100020000000000000000000000000007502000851
:100030007502000800000000750200086D04000849
:1000400075020008750200087502000875020008B4
:1000500075020008750200087502000875020008A4
:100060007502000875020008750200087502000894
:100070007502000875020008750200087502000884
:100080007502000875020008750200087502000874
:100090007502000875020008750200087502000864
:1000A0007502000875020008750200087502000854
:1000B00075020008810A0008750200087502000830
:1000C0007502000875020008750200087502000834
:1000D0007502000875020008750200087502000824
:1000E0007502000875020008750200087502000814
:1000F0007502000875020008750200087502000804
:1001000075020008750200087502000875020008F3
:1001100075020008750200087502000875020008E3
:1001200075020008750200087502000875020008D3
:1001300075020008000000000000000075020008C1
:1001400075020008750200087502000875020008B3
:1001500075020008750200087502000875020008A3
:100160007502000875020008750200087502000893
:100170007502000875020008750200080000000002
:1001800000000000750200080000000000000000F0
:100190007502000800000000000000007502000861
:1001A00000000000000000000000000075020008D0
:1001B0007502000875020008750200087502000843
:0401C00075020008BC
:1001C40010B5054C237833B9044B13B10448AFF38D
:1001D40000800123237010BD3404002000000000BF
:1001E4000012000808B5034B1BB103490348AFF3E1
:1001F400008008BD00000000380400200012000840
:1002040080B400AF054AD2F8883043F47003C2F8D2
:100214008830BD465DF8047B704700BF00ED00E008
:10022400DFF834D0FFF7ECFF0C480D490D4A0023EA
:1002340002E0D458C4500433C4188C42F9D30A4A97
:100244000A4C002301E013600432A242FBD300F005
:1002540041FF00F081F870470000022000000020F8
:1002640034040020A8120008340400208C04002068
:10027400FEE72DE9F04786B000AF044610EE10AA61
:1002840010EE909A11EE108A11EE906A12EE105A46
:10029400012100F04BFBC7F804A0C7F80890C7F889
:1002A4000C803E617D61391D204600F0C0F918378D
:1002B400BD46BDE8F087000098B500AF00210846B0
:1002C40000F048FBB3EE040A002000F029F90446CC
:1002D4009FED200A002000F039F902462146002053
:1002E40000F086FB002000F075FB0028FAD1002105
:1002F400012000F02FFBB3EE040A012000F010F9F6
:1003040004469FED140A012000F020F9024621461C
:10031400012000F06DFB012000F05CFB0028FAD105
:100324000121022000F016FBB3EE040A022000F0C3
:10033400F7F804469FED070A022000F007F9024689
:100344002146022000F054FB022000F043FB002869
:10035400FAD198BD00009644B0B52DED048B82B05F
:1003640000AF00F087F800F0A5F800F054F99FED15
:10037400209ADFED208A9FED208AB7EE002AF0EE66
:10038400491AB0EE081AF0EE680AB0EE480A0020E6
:10039400FFF76FFF0446B7EE002AF0EE491AB0EEFD
:1003A400081AF0EE680AB0EE480A0120FFF761FF70
:1003B4000546B7EE002AF0EE491AB0EE081AF0EE40
:1003C400680AB0EE480A0220FFF753FF1CB13DB1A2
:1003D40040B9002300E00023FB71FB7923B9FEE759
:1003E4000023F9E70123F7E7FFF766FFF7E700BF0C
:1003F40000005C43000096430000E14480B400AF79
:1004040000280BDB0901C9B200F1604000F561402E
:1004140080F80013BD465DF8047B704700F00F00C0
:100424000901C9B2014B1954F4E700BF14ED00E00F
:100434000138B0F1807F01D30120704798B500AF37
:100444004FF0E02460610F214FF0FF30FFF7D6FF3B
:100454000020A0610723236198BD80B500AF00F0A0
:1004640005FE00F083FD80BD80B500AFFFF7F5FF0A
:1004740080BD000080B500AF00F0B6FC0A4B1868E0
:100484000A4BA3FB00308009FFF7D2FF4FF4E131A0
:10049400074800F06FFC00F04BFD00F0BFFD00F0DA
:1004A40007FA00F007F880BD00000020D34D621069
:1004B40040A5AE0280B400AF094A0A4B93E803009A
:1004C40082E8030002F1080C8CE8030010320833C0
:1004D40093E8030082E80300BD465DF8047B70479F
:1004E400500400201812000880B400AF0B4B33F8FE
:1004F400302000EE102AB8EE400A03EBC000438817
:1005040007EE903AF8EE677A60EE277A90ED010AEA
:1005140087EE800ABD465DF8047B704750040020D6
:1005240080B52DED028B00AFB0EE408AFFF7DCFF03
:1005340020EE080AF6EE007A30EE270AFCEEC07AC6
:1005440017EE900ABD46BDEC028B80BD80B52DED43
:10055400028B00AFDFED097A80EE278AFFF7C4FF34
:1005640020EE080AF6EE007A30EE270AFCEEC07A96
:1005740017EE900ABD46BDEC028B80BD00007042B0
:1005840080B400AF012804D90020BD465DF8047B87
:1005940070470120F9E780B500AF00F067FD012046
:1005A40000F086FC80BD98B500AF044631B1FFF77A
:1005B400E7FF0146204600F0CDF998BDFFF7E0FFC4
:1005C40080F00101C9B2F5E7B0B52DED028B00AFA3
:1005D4000446F0EE408AB0EE608AFFF7E4FFB0EE26
:1005E400680A2046FFF79CFF0546B0EE480A2046FD
:1005F400FFF7ACFF02462946204600F0F9F901E076
:10060400FFF7C9FF204600F0E5F90028F8D1BD4600
:10061400BDEC028BB0BD98B500AF00F0FFFC002428
:1006240002E0FFF7B8FF0134092CFADD98BD2DE98B
:10063400F04100AF04460E46012100F077F9204650
:1006440000F032FDC0B10021D6ED010A96ED020A98
:100654002046FFF7B9FF002502E0FFF79CFF0135B4
:10066400132D04DC204600F01FFD0028F5D12046A0
:1006740000F01AFD00285AD10121D6ED000A96EDAA
:10068400030A2046FFF7A0FF204600F00DFD0546B3
:1006940010B92846BDE8F0810021D6ED010A96ED97
:1006A400020A2046FFF790FF002502E0FFF773FFE0
:1006B4000135312D04DC204600F0F6FC0028F5D18C
:1006C400204600F0F1FC804608B10025E1E796EDF4
:1006D400020A0121D6ED010A30EE000A2046FFF796
:1006E40073FF204600F0E0FC05460028D1D096EDCB
:1006F400040AB5EEC00AF1EE10FACADB0021D6ED09
:10070400010A2046FFF760FF002602E0FFF743FFDF
:100714000136312E04DC204600F0C6FC0028F5D159
:10072400204600F0C1FC0028B3D04546B1E70025BF
:10073400AFE780B400AF012804D90020BD465DF8BE
:10074400047B70470120F9E780B400AF0120BD4667
:100754005DF8047B7047000080B400AF002807DB1D
:1007640000F01F02400901239340034A42F820305D
:10077400BD465DF8047B704700E100E080B400AF43
:1007840000EB4000034B03EBC000BD465DF8047B67
:10079400704700BF2812000880B400AF01280ED0B3
:1007A40002280AD04FF4807259B109490B6A1343E5
:1007B4000B62BD465DF8047B70471022F4E701220A
:1007C400F2E703490B6A23EA02030B62F1E700BF75
:1007D4000004004080B400AF012303FA00F0C0B26B
:1007E400BD465DF8047B704780B400AF044B1878B5
:1007F400003818BF0120BD465DF8047B704700BF78
:100804006804002098B500AFFFF7B8FF04460068FD
:1008140000F0C6F9A06800F0C3F9206900F0C0F93F
:1008240062792179206800F06AFA217BA06800F0DF
:1008340045FA217D206900F041FA217D22690123D6
:100844008B409361A379012B13D0022B1FD0174B3C
:10085400DA6922F07302DA61DA6942F06802DA6175
:100864001A6A22F400721A620121A079FFF794FF38
:1008740098BD0E4B9A6922F073029A619A6942F00C
:1008840068029A611A6A22F002021A62ECE7074BC4
:100894009A6922F4E6429A619A6942F4D0429A61D2
:1008A4001A6A22F020021A62DEE700BF0004004048
:1008B40098B500AF144A136C43F002031364134C4D
:1008C400E36843F00103E3601D20FFF745FF0020C8
:1008D40020605923A36240F2E733E362236843F0C4
:1008E40080032360FFF78EFF0120FFF78BFF0220B8
:1008F400FFF788FFE36A0133C3F34F036363A36322
:10090400E3630123636198BD0038024000040040A2
:1009140080B400AF044A136823F001031360BD469A
:100924005DF8047B704700BF0004004098B500AF39
:100934000C46FFF723FF3CB1037D03F1100201696C
:10094400012393408B6198BD017D026901238B4093
:100954009361F8E7F8B500AF06460D46FFF70EFFC2
:1009640004460A4B9D553046FFF7EEFE854207D0FC
:10097400237B03F11002A168012393408B61F8BD2E
:10098400217BA26801238B409361F8E704000020D7
:10099400B0B500AFA9B10C4AB2FBF1F4914200D951
:1009A4000124631E9BB2094DEB62FFF7E7FE8279D7
:1009B400074B53F82230C4F34F041C6001236B61CE
:1009C400B0BDFFF7A5FFFBE740420F000004004065
:1009D4007012000880B500AFFFF7FCFE034B1B78D4
:1009E400034214BF0120002080BD00BF6804002022
:1009F400002939D0F8B500AF044615460E4602B9B1
:100A0400F8BD00F0C9FA0028FAD1184B1B5D23B3D6
:100A14002046FFF78EFE20B1204600F055FB00284B
:100A2400EED129462046FFF7B3FF114B43F824606B
:100A34002046FFF7CFFE0F4A13780343DBB213704F
:100A44002046FFF79BFE01218079FFF7A5FE0A4AA5
:100A5400136843F001031360D2E72046FFF769FEF1
:100A640080F00100C0B2D6E7704700BF0400002048
:100A74006C040020680400200004004098B500AF16
:100A8400424B1B6913F0010F00D198BD3F4A136913
:100A940023F00103136100F07FFAB8B900242FE0BA
:100AA4000134022C14DC3A4B53F82430002BF7D0D9
:100AB40004EB4403374A02EBC30300219879FFF7A0
:100AC4006BFE334B002243F82420E9E70024E8E7D7
:100AD400314B00221A702D4A136823F0010313606E
:100AE400D3E7E0B2FFF725FE80F00100C0B2B0B951
:100AF400274A52F82430013B42F8243053B30134DE
:100B0400022C39DC224B53F82430002BF7D0234B32
:100B14001B5D002BE5D0E0B2FFF70BFEE7E7E0B288
:100B240000F0D2FA0028E3D004EB4403194A02EBA4
:100B3400C30300219879FFF72FFE012303FA04F27F
:100B440015490B7823EA02030B70114B002243F87A
:100B54002420D4E704EB44030E4A02EBC303002130
:100B64009879FFF719FE012303FA04F20A490B7876
:100B740023EA02030B70C2E7FFF736FE002884D194
:100B8400024A136823F0010313607EE70004004067
:100B94006C040020281200086804002004000020CF
:100BA40080B400AF254B98421AD0254B984220D0F0
:100BB400244B984223D0244B984226D0234B98426E
:100BC40029D0234B98422CD0224B98422FD0224B31
:100BD40098420AD1214A136B43F08003136304E063
:100BE4001E4A136B43F001031363BD465DF8047B97
:100BF40070471A4A136B43F002031363F5E7174A6D
:100C0400136B43F004031363EFE7144A136B43F0CD
:100C140008031363E9E7114A136B43F010031363EA
:100C2400E3E70E4A136B43F020031363DDE70B4A3B
:100C3400136B43F040031363D7E700BF0000024087
:100C44000004024000080240000C02400010024070
:100C54000014024000180240001C02400038024008
:100C640080B400AF4900026803238B4022EA0302E8
:100C74000260C26822EA0303C360C368012202FA65
:100C840001F11943C160BD465DF8047B704780B42F
:100C940000AF4900026803238B4022EA030202608A
:100CA400C26822EA0303C360C368022202FA01F1A4
:100CB4001943C160BD465DF8047B704790B400AF32
:100CC40002684FEA410C032303FA0CF322EA0302FD
:100CD40002600468012202FA0CFC44EA0C04046079
:100CE40044688A4024EA0202426082681A438260AD
:100CF400C26822EA0303C360BD4690BC7047F0B5E6
:100D040000AF06684FEA410C032303FA0CF36FEAC1
:100D1400030E26EA030606600468022505FA0CF5AC
:100D24002C430460072922D800F1200501F0070CA8
:100D34004FEA8C0C2C680F2606FA0CF624EA0604FB
:100D44002C602C6802FA0CFC44EA0C042C60426807
:100D54004FF0010C0CFA01F122EA010141608268B2
:100D640013438360C3680EEA0303C360F0BD00F15C
:100D74002405DBE780B400AF1A4B1A6B42F0010282
:100D84001A631A6C42F400321A64A3F560531A68A9
:100D940022F030021A601A6842F020021A601A68BF
:100DA40022F0C0021A601A6842F080021A601A6ABD
:100DB40042F4E0621A621A6A42F4E0421A62A3F54B
:100DC400DE33DA6842F00C02DA6000EB5100B0FB6B
:100DD400F1F09860DA6842F40052DA60BD465DF8DA
:100DE400047B70470038024080B400AF2B4B1A6C70
:100DF40042F080521A642A490A6842F440420A6066
:100E04001A6842F480221A601A6842F480321A6026
:100E1400224B1B6813F4003FFAD0214A136843F4B1
:100E24008033136002F5E632136843F4E06343F061
:100E340005031360194B00225A605968194A0A4382
:100E44005A601A6842F080721A60144B1B6813F0DF
:100E5400007FFAD0114B9A6822F47C4222F0F0020F
:100E64009A609A689A609A6842F4A0529A609A6862
:100E740042F400429A609A6822F0030242F00202AD
:100E84009A60064B9B68C3F38103022BF9D1064B8E
:100E9400064A1A60BD465DF8047B7047003802407C
:100EA40000700040042D4000000000200095BA0AA4
:100EB40080B483B000AF786000E000BF7B685A1E46
:100EC4007A60002BF9D10C37BD465DF8047B70477E
:100ED40080B400AF03464078884210D09A788A42A2
:100EE40011D0997001221A701A78042A02D9597003
:100EF40000221A705878BD465DF8047B70470022C2
:100F04001A709970F7E71A78FF2AEDD001321A7037
:100F1400EAE780B400AF006920FA01F101F00103AF
:100F240018460AB983F00100BD465DF8047B70479A
:100F3400B0B500AF0A4D2846FFF732FE0D21284612
:100F4400FFF7A5FE0024074B1C7022460D212846FE
:100F5400FFF7DFFF044B1C7098705870B0BD00BFE2
:100F6400000802407B0400207804002080B500AF14
:100F740000220D210548FFF7CCFF01460448FFF786
:100F8400A7FF10B1034B01221A7080BD0008024074
:100F9400780400207B04002080B400AF044B187850
:100FA400003818BF0120BD465DF8047B704700BFC0
:100FB4007B04002080B400AF03464078884210D000
:100FC4009A788A4211D0997001221A701A78042AE8
:100FD40002D9597000221A705878BD465DF8047B16
:100FE400704700221A709970F7E71A78FF2AEDD03B
:100FF40001321A70EAE780B400AF024603681B6945
:101004000079C34003F00101084653790BB181F024
:101014000100BD465DF8047B70470000F8B500AFE1
:10102400002400E00134022C1ADC0E4B53F8345037
:10103400002DF7D02846FFF7B3FD0A4E06EBC40691
:1010440031792846FFF70CFE074A04EB4403D51810
:101054000021D1543046FFF7CEFFA8706870E1E755
:10106400F8BD00BF801200087C04002098B500AFD2
:10107400002400E00134022C11DC094B53F8343015
:10108400002BF7D0064800EBC400FFF7B4FF01467D
:1010940004EB440303481844FFF78CFFEAE798BDC8
:1010A400801200087C04002080B400AF00EB4000F4
:1010B400044B18444078003818BF0120BD465DF841
:1010C400047B70477C04002080B500AFFFF7ECFF81
:1010D40080BD000070B50D4E0D4D761BB61006D0C8
:1010E400002455F8043B01349847A642F9D1094E2F
:1010F400094D761B00F082F8B61006D0002455F88E
:10110400043B01349847A642F9D170BD9C120008F3
:101114009C120008A41200089C120008024B13B190
:10112400024800F005B870470000000041110008B3
:10113400002301461A46184600F01AB838B5084B81
:10114400084D5B1B9C1007D0043B1D44013C55F823
:1011540004399847002CF9D1BDE8384000F054B860
:10116400A8120008A4120008704700BF704700BF0F
:101174002DE9F047DFF880A00646DAF8000098462B
:101184000F469146FFF7F0FF1A4B1B68D3F848410E
:1011940024B365681F2D26DC5EB96B1C0235DAF8B2
:1011A4000000636044F82570FFF7E0FF0020BDE80D
:1011B400F08704EB85010123C1F88890D4F88821D5
:1011C400AB401A43022EC4F88821C1F80881E4D147
:1011D400D4F88C211343C4F88C31DEE703F5A674EC
:1011E400C3F84841D5E7DAF80000FFF7BFFF4FF036
:1011F400FF30DCE79812000830040020F8B500BF87
:10120400F8BC08BC9E467047F8B500BFF8BC08BCE3
:041214009E4670473B
:10121800C800080000002042C80008000000004183
:101228000000024006020100000402400400000021
:10123800000402400C000000000002400702020007
:101248000004024005000000000402400D000000F8
:1012580000040240000203000008024002000000EF
:10126800000402400E0000000000000034040040AA
:10127800380400403C040040000002400001000027
:1012880000000240010100000000024004010000CB
:04129800080000202A
:08129C0021110008E90100081E
:0412A400C501000878
:1012A8000024F4000101010000000000F402002005
:1012B8005C030020C40300200000000000000000C0
:1012C8000000000000000000000000000000000016
:1012D8000000000000000000000000000000000006
:1012E80000000000000000000000000000000000F6
:1012F80000000000000000000000000000000000E6
:1013080000000000000000000000000000000000D5
:1013180000000000000000000000000000000000C5
:1013280000000000000000000000000000000000B5
:1013380000000000000000000000000000000000A5
:101348000000000000000000000000000000000095
:1013580001000000000000000E33CDAB34126DE632
:10136800ECDE05000B00000000000000000000009B
:101378000000000000000000000000000000000065
:101388000000000000000000000000000000000055
:101398000000000000000000000000000000000045
:1013A8000000000000000000000000000000000035
:0416D8008804002062
:0400000508000225C8
:00000001FF
