:020000040800F2
:1000000000000220190200086902000869020008C5
:100010006902000869020008690200080000000087
:10002000000000000000000000000000690200085D
:10003000690200080000000069020008B10300081E
:1000400069020008690200086902000869020008E4
:1000500069020008690200086902000869020008D4
:1000600069020008690200086902000869020008C4
:1000700069020008690200086902000869020008B4
:1000800069020008690200086902000869020008A4
:100090006902000869020008690200086902000894
:1000A0006902000869020008690200086902000884
:1000B00069020008E10800086902000869020008F6
:1000C0006902000869020008690200086902000864
:1000D0006902000869020008690200086902000854
:1000E0006902000869020008690200086902000844
:1000F0006902000869020008690200086902000834
:100100006902000869020008690200086902000823
:100110006902000869020008690200086902000813
:100120006902000869020008690200086902000803
:1001300069020008000000000000000069020008D9
:1001400069020008690200086902000869020008E3
:1001500069020008690200086902000869020008D3
:1001600069020008690200086902000869020008C3
:100170006902000869020008690200080000000026
:1001800000000000690200080000000000000000FC
:100190006902000800000000000000006902000879
:1001A00000000000000000000000000069020008DC
:1001B0006902000869020008690200086902000873
:0401C00069020008C8
:1001C40010B5054C237833B9044B13B10448AFF38D
:1001D40000800123237010BD3404002000000000BF
:1001E4000410000808B5034B1BB103490348AFF3DF
:1001F400008008BD0000000038040020041000083E
:10020400034AD2F8883043F47003C2F88830704748
:1002140000ED00E0DFF834D0FFF7F2FF0C480D49A1
:100224000D4A002302E0D458C4500433C4188C424D
:10023400F9D30A4A0A4C002301E013600432A242B3
:10024400FBD300F049FE00F00FF8704700000220D5
:100254000000002034040020AC1000083404002006
:100264008C040020FEE700002DE9F04788B000F080
:10027400A5F800F0D3F800F063F90121002000F0A4
:100284007DFADFF82091DFF82081434E434FCDF80B
:100294000C904FF07E5503A90020CDF810800597EF
:1002A4000696079500F058F901210446084600F027
:1002B40065FA03A90120CDF80C90CDF810800597BC
:1002C4000696079500F048F901218246022000F0C5
:1002D40055FA03A90220CDF80C90CDF810800597AB
:1002E4000696079500F038F924B1BAF1000F14BF4F
:1002F400044600248DF80C409DF80C3003B9FEE749
:100304000021084600F04EFAB3EE040A002000F083
:100314009BF89FED230A0190002000F0B5F80199A5
:100324000246002000F090FA002000F081FA002834
:10033400FAD10146012000F035FAB3EE040A012097
:1003440000F082F89FED160A0190012000F09CF85D
:1003540001990246012000F077FA012000F068FAC2
:100364000028FAD10121022000F01CFAB3EE040A9D
:10037400022000F069F89FED0A0A0190022000F0C3
:1003840083F801990246022000F05EFA022000F090
:100394004FFA0028FAD1B2E700005C430000604045
:1003A400000096440000E1440000964308B500F0C4
:1003B40041FDBDE8084000F0D7BC00BF08B500F01F
:1003C4004BFC124B124A1B68A2FB03239B09013B03
:1003D400B3F1807F0BD24FF0E0220E4853614FF00F
:1003E400F00C0021072380F823C0916113610A48AF
:1003F4004FF4E13100F0F6FB00F09AFC00F0E8FC69
:1004040000F08AF9BDE8084000F008B800000020B8
:10041400D34D621000ED00E040A5AE02084B094A3E
:1004240093E8030002F1080C083382E803008CE827
:10043400030093E80300103282E80300704700BF12
:100444001C100008500400200E4B03EBC00233F8CC
:100454003030D2ED016A07EE903A5388B8EE677AED
:1004640007EE903AF8EE677A67EE277A87EEA67A77
:10047400F6EE007AE0EE077AFCEEE77A17EE900AE1
:10048400704700BF50040020104ADFED115A02EB00
:10049400C00332F8302093ED016A07EE902A5A889F
:1004A40007EE102AF8EE677AB8EE477AC0EE256AAE
:1004B40067EE877A87EE867AF6EE007AE6EE877A3A
:1004C400FCEEE77A17EE900A704700BF5004002054
:1004D4000000704210B52DED028B044682B0B0EEE0
:1004E400608A39B301288CBF0021012120468DED9B
:1004F400010A00F057F99DED010A2046FFF7A4FF19
:10050400B0EE480A01902046FFF7BEFF019902466B
:10051400204600F099F904E000F08CFC012000F082
:10052400F9FB204600F084F90028F5D102B0BDECB7
:10053400028B10BD012894BF00210121D6E700BF22
:1005440010B500F045FC0A2400F074FC012000F012
:10055400E1FB013CF8D110BD70B504460E46012103
:1005640000F00CF9204600F09FFCC8B1D6ED010A5A
:1005740096ED020A00212046FFF7ACFF142506E0A1
:1005840000F058FC012000F0C5FB013D04D02046DA
:1005940000F08AFC0028F3D1204600F085FC58B90D
:1005A4002046D6ED000A96ED030A0121FFF792FFDB
:1005B400204600F079FC08B9002070BDD6ED010A90
:1005C40096ED020A00212046FFF784FF322506E05B
:1005D40000F030FC012000F09DFB013D04D02046DA
:1005E40000F062FC0028F3D1204600F05DFC0546D3
:1005F4000028E1D196ED020AD6ED010A204630EE3C
:10060400000A0121FFF766FF204600F04DFC002898
:10061400D2D096ED040AB5EEC00AF1EE10FACCDBA6
:100624002946D6ED010A2046FFF754FF322506E09D
:1006340000F000FC012000F06DFB013D04D02046D9
:1006440000F032FC0028F3D1204600F02DFC80F0AD
:100654000100C0B270BD00BFF8B500EB40002C4CE7
:1006640054F8307004EBC004384600F0DFF9A66893
:10067400304600F0DBF92569284600F0D7F96279A5
:100684002179384600F07AFA3046217B00F056FA98
:10069400267D2846314600F051FAA3790122B24062
:1006A400012BAA6124D0022B13D01A4AD36923F058
:1006B4007303D361D36943F06803D361136A23F4EA
:1006C40000734FF480711362124A136A0B4313626E
:1006D400F8BD104B9A6922F4E6429A619A6942F491
:1006E400D0429A611A6A22F0200210211A62EBE7C2
:1006F400084A1946936923F073039361936943F09D
:1007040068039361136A23F002031362DCE700BFFA
:100714002C10000800040040154A136C10B543F077
:100724000203144C1364E36843F00103E360124BC7
:100734004FF000521A605922002040F2E733206043
:10074400A262E362236843F080032360FFF784FF1F
:100754000120FFF781FF0220FFF77EFFE36A0122F9
:100764001344C3F34F036363A363E363626110BD84
:10077400003802400004004000E100E0084B00EBB8
:10078400400003EBC000012329B1027D016910324E
:1007940093408B617047017D02698B409361704780
:1007A4002C100008094B1954094B00EB400003EBD3
:1007B400C000012321B1017B82688B4093617047A3
:1007C400027B8168103293408B61704704000020E3
:1007D4002C100008E9B1124B994210B416D8B3FB9F
:1007E400F1F14A1E92B2C1F34F010E4B0E4C00EBD5
:1007F400400003EBC0000D4B8079DA6254F82040CE
:10080400012021605DF8044B5861704700221146B5
:10081400EBE7064A136823F001031360704700BF37
:1008240040420F002C10000874100008000400401F
:10083400044B1A78012303FA00F0024214BF18464D
:100844000020704768040020002938D070B516468F
:1008540002B970BD04460D4600F0B2FA0028F8D182
:10086400194B1B5D63BB012C04D9204600F028FB07
:100874000028EED120463146FFF7ACFF134B144A53
:1008840043F8245004EB4400124902EBC0020B78F5
:100894009279012000FA04F41C43E4B282420C7001
:1008A40004D0022A0CBF10224FF480720A4B196A3A
:1008B4000A431A621A6842F001021A6070BD704756
:1008C400012CD7D8D1E700BF040000206C0400201D
:1008D4002C10000868040020000400402DE9F047B3
:1008E4004D4D2B69DB0701D4BDE8F0872B6923F05C
:1008F40001032B6100F064FA002847D1474F484EAA
:10090400DFF82081DFF8209104464FF0010A56F801
:1009140024301BB319F8043083BB022C04D1E0B299
:1009240000F0CEFA002858D156F82430013B46F89E
:1009340024309BB9BB79012B67D0022B0CBF6FF01D
:1009440010026FF480722B6A13402B6298F8003007
:100954000AFA04F223EA020388F800300134032C73
:1009640007F11807D3D198F80030002BBCD12A4ADC
:10097400136823F001031360BDE8F087022CCED185
:10098400B368013BB360002BEDD1D3E70023234AC6
:10099400234E1C4656F8231069B19179012919D0C8
:1009A40002290CBF6FF010016FF48071286A0140B6
:1009B400296246F823400133032B02F11802E9D1DE
:1009C400184B154A00211970136823F001031360B2
:1009D400BDE8F0876FF00101E8E7BB79012B17D080
:1009E400022B0CBF6FF010026FF480722B6A13405D
:1009F4002B6298F800300AFA04F223EA020388F81A
:100A04000030002346F82430A8E76FF001029AE78B
:100A14006FF00102EAE700BF000400402C10000858
:100A24006C0400206804002004000020244B984239
:100A34001BD0244B984212D0234B984221D0234BF5
:100A4400984224D0224B984215D0224B984224D06D
:100A5400214B984227D0214B98422AD07047204AF4
:100A6400136B43F00203136370471D4A136B43F087
:100A74000103136370471A4A136B43F010031363A3
:100A84007047174A136B43F0040313637047144A07
:100A9400136B43F0080313637047114A136B43F05D
:100AA4002003136370470E4A136B43F04003136330
:100AB40070470B4A136B43F080031363CEE700BF08
:100AC400000002400004024000080240000C024002
:100AD400001002400014024000180240001C0240B2
:100AE400003802400368490003228A4023EA0203D3
:100AF400036010B4C46824EA0202C260C2685DF8EC
:100B0400044B012303FA01F11143C160704700BF94
:100B14000368490003228A4023EA0203036010B4F5
:100B2400C46824EA0202C260C2685DF8044B02236E
:100B340003FA01F11143C160704700BF10B44B00C8
:100B4400046803229A4024EA0204046004684FF013
:100B5400010C0CFA03F32343036043685DF8044B70
:100B64000CFA01FC23EA0C0343608368134383609B
:100B7400C36823EA0202C260704700BF70B5032352
:100B840005684E00B34025EA0305056005680224A4
:100B9400B4402C430729046094BF00F1200400F101
:100BA400240401F0070C25684FEA8C0C0F2602FA86
:100BB4000CF206FA0CFC25EA0C05256025682A438C
:100BC40022604268012404FA01F122EA0101416031
:100BD40082686FEA030E13438360C3680EEA03035B
:100BE400C36070BD1A4A1B4B10B4146B44F001046B
:100BF4001463146C44F4003414641C6824F030044A
:100C04001C601C6844F020041C601C6824F0C004B0
:100C14001C6000EB5100B0FBF1F118685DF8044B67
:100C240040F080001860186A40F4E0601862186AA6
:100C3400A2F5FA3240F4E0401862D36843F00C03A2
:100C4400D3609160D36843F40053D360704700BF0E
:100C54000038024000000240284B29491A6C42F037
:100C6400805210B41A640A6842F440420A601A6856
:100C740042F480221A601A6842F480321A601A68B8
:100C84009203FCD51E481F49026842F48032026078
:100C94000A6842F4E06242F0050200240A605C60E3
:100CA40058681949154A01435960196841F080711F
:100CB400196013689B01FCD59368104923F47C43A5
:100CC40023F0F003936093689360936843F4A05314
:100CD4009360936843F400439360936823F00303A1
:100CE40043F0020393608B68C3F38103022BFAD1B0
:100CF400064B074A5DF8044B1A60704700380240FF
:100D040000700040003C0240042D40000000002020
:100D14000095BA0A82B00190019B5A1E01922BB130
:100D240000BF019B5A1E0192002BF9D102B07047FB
:100D340010B50A4C2046FFF779FE0D212046FFF737
:100D4400E7FE074B074A00211970236911706FEA07
:100D5400533303F001039370537010BD0008024035
:100D64007B04002078040020124B134A1B6951783D
:100D74006FEA533303F001038B4217D09078984203
:100D840007D001209370107011B10C4B01221A701E
:100D940070471078FF2804D00130C0B204281070C6
:100DA400F2D90021117053701946EDE70023137036
:100DB4009170E9E700080240780400207B040020D9
:100DC400024B1878003818BF012070477B040020BC
:100DD4002DE9F843144C154D154E04F1090900276B
:100DE4002846A5B1FFF722FE96F80480284641461E
:100DF400FFF778FE27702969727921FA08F101F06A
:100E040001010AB181F00101C9B2A170617003341A
:100E14004C4507D056F8085F2846002DE2D103342C
:100E24004C45F7D1BDE8F8837C0400200000024063
:100E340084100008194B1A491A4A30B503F1090EF7
:100E440000240125A2B1126991F804C0487922FA5C
:100E54000CF202F0010208B182F0010293F801C021
:100E64009445D0B216D09A78824208D098701D70FA
:100E740003339E4502D051F8082FE3E730BD1A78BA
:100E8400FF2A04D00132D2B2042A1A70F0D9587061
:100E94001C70EDE783F802C01C70E9E77C040020B5
:100EA4008410000800000240044B00EB400018448A
:100EB4004078003818BF0120704700BF7C04002030
:100EC400044B00EB400018444078003818BF012060
:100ED400704700BF7C04002070B50D4E0D4D761B8D
:100EE400B61006D0002455F8043B01349847A642B6
:100EF400F9D1094E094D761B00F082F8B61006D0E0
:100F0400002455F8043B01349847A642F9D170BD3A
:100F1400A0100008A0100008A8100008A0100008E5
:100F2400024B13B1024800F005B8704700000000FE
:100F3400450F0008002301461A46184600F01AB867
:100F440038B5084B084D5B1B9C1007D0043B1D446F
:100F5400013C55F804399847002CF9D1BDE83840D4
:100F640000F054B8AC100008A8100008704700BF87
:100F7400704700BF2DE9F047DFF880A00646DAF895
:100F8400000098460F469146FFF7F0FF1A4B1B6886
:100F9400D3F8484124B365681F2D26DC5EB96B1C69
:100FA4000235DAF80000636044F82570FFF7E0FFCB
:100FB4000020BDE8F08704EB85010123C1F8889087
:100FC400D4F88821AB401A43022EC4F88821C1F812
:100FD4000881E4D1D4F88C211343C4F88C31DEE7C2
:100FE40003F5A674C3F84841D5E7DAF80000FFF723
:100FF400BFFF4FF0FF30DCE79C10000830040020F6
:10100400F8B500BFF8BC08BC9E467047F8B500BFF1
:08101400F8BC08BC9E467047C1
:10101C00C800080000002042C80008000000004181
:10102C00000002400602010000040240040000001F
:10103C00000402400C000000000002400702020005
:10104C000004024005000000000402400D000000F6
:10105C0000040240000203000008024002000000ED
:10106C00000402400E0000000000000034040040A8
:10107C00380400403C040040000002400001000025
:10108C0000000240010100000000024004010000C9
:04109C000800002028
:0810A000250F0008E90100081A
:0410A800C501000876
:1010AC000024F4000101010000000000F402002003
:1010BC005C030020C40300200000000000000000BE
:1010CC000000000000000000000000000000000014
:1010DC000000000000000000000000000000000004
:1010EC0000000000000000000000000000000000F4
:1010FC0000000000000000000000000000000000E4
:10110C0000000000000000000000000000000000D3
:10111C0000000000000000000000000000000000C3
:10112C0000000000000000000000000000000000B3
:10113C0000000000000000000000000000000000A3
:10114C000000000000000000000000000000000093
:10115C0001000000000000000E33CDAB34126DE630
:10116C00ECDE05000B000000000000000000000099
:10117C000000000000000000000000000000000063
:10118C000000000000000000000000000000000053
:10119C000000000000000000000000000000000043
:1011AC000000000000000000000000000000000033
:0414DC008804002060
:0400000508000219D4
:00000001FF
