:020000040800F2
:100000000000022069020008B9020008B9020008D5
:10001000B9020008B9020008B90200080000000097
:10002000000000000000000000000000B90200080D
:10003000B902000800000000B9020008B902000877
:10004000B9020008B9020008B9020008B9020008A4
:10005000B9020008B9020008B9020008B902000894
:10006000B9020008B9020008B9020008B902000884
:10007000B9020008B9020008B9020008B902000874
:10008000B9020008B9020008B9020008B902000864
:10009000B9020008B9020008B9020008B902000854
:1000A000B9020008B9020008B9020008B902000844
:1000B000B9020008B9020008B9020008B902000834
:1000C000B9020008B9020008B9020008B902000824
:1000D000B9020008B9020008B9020008B902000814
:1000E000B9020008B9020008B9020008B902000804
:1000F000B9020008B9020008B9020008B9020008F4
:10010000B9020008B9020008B9020008B9020008E3
:10011000B9020008B9020008B9020008B9020008D3
:10012000B9020008B9020008B9020008B9020008C3
:10013000B90200080000000000000000B902000839
:10014000B9020008B9020008B9020008B9020008A3
:10015000B9020008B9020008B9020008B902000893
:10016000B9020008B9020008B9020008B902000883
:10017000B9020008B9020008B90200080000000036
:1001800000000000B90200080000000000000000AC
:10019000B90200080000000000000000B9020008D9
:1001A000000000000000000000000000B90200088C
:1001B000B9020008B9020008B9020008B902000833
:0401C000B902000878
:1001C40010B5054C237833B9044B13B10448AFF38D
:1001D40000800123237010BD0400002000000000F3
:1001E400D003000808B5034B1BB103490348AFF320
:1001F400008008BD0000000008000020D0030008B3
:100204001048114A036B114943F0010382B00363A0
:10021400136823F440631360136843F4806300207D
:100224001360536983F0200353610190019B8B4257
:10023400F7D800BF019B01330193019B8B42F8D98E
:10024400EFE700BF0038024000000240DF930400E3
:10025400034AD2F8883043F47003C2F888307047F8
:1002640000ED00E0DFF834D0FFF7F2FF0C480D4951
:100274000D4A002302E0D458C4500433C4188C42FD
:10028400F9D30A4A0A4C002301E013600432A24263
:10029400FBD300F011F8FFF7B3FF70470000022012
:1002A4000000002004000020F403000804000020E3
:1002B400B8010020FEE7000070B50D4D0D4C641B25
:1002C400A4100026A64209D10B4D0C4C00F07EF878
:1002D400641BA4100026A64205D170BD55F8043B4A
:1002E40098470136EEE755F8043B98470136F2E7A4
:1002F400E8030008E8030008E8030008F003000826
:1003040070477047024B13B1024800F005B87047BC
:100314000000000029030008002301461A4618467D
:1003240000F014B838B5074D074C641BA4101CB971
:10033400BDE8384000F050B8013C55F824309847E7
:10034400F5E700BFF0030008F40300082DE9F047C7
:10035400DFF874A00646DAF8000098460F46914686
:10036400FFF7CEFF164B1C680CB9164C1C60656871
:10037400DAF800001F2D05DDFFF7C3FF4FF0FF3053
:10038400BDE8F0879EB104EB85010122C1F8889095
:10039400D4F88831AA401343C4F88831022EC1F836
:1003A400088102BFD4F88C311343C4F88C316B1C20
:1003B4000235636044F82570FFF7A3FF0020DFE7F0
:1003C400240000202800002000000020F8B500BF11
:1003D400F8BC08BC9E467047F8B500BFF8BC08BC22
:0403E4009E4670477A
:0803E80009030008E901000807
:0403F000C50100083B
:0403F40020000020C5
:040000050800026984
:00000001FF
