:020000040800F2
:10000000000002202503000875030008750300089E
:100010007503000875030008750300080000000060
:100020000000000000000000000000007503000850
:100030007503000800000000750300087503000840
:1000400075030008750300087503000875030008B0
:1000500075030008750300087503000875030008A0
:100060007503000875030008750300087503000890
:100070007503000875030008750300087503000880
:100080007503000875030008750300087503000870
:100090007503000875030008750300087503000860
:1000A0007503000875030008750300087503000850
:1000B0007503000875030008750300087503000840
:1000C0007503000875030008750300087503000830
:1000D0007503000875030008750300087503000820
:1000E0007503000875030008750300087503000810
:1000F0007503000875030008750300087503000800
:1001000075030008750300087503000875030008EF
:1001100075030008750300087503000875030008DF
:1001200075030008750300087503000875030008CF
:1001300075030008000000000000000075030008BF
:1001400075030008750300087503000875030008AF
:10015000750300087503000875030008750300089F
:10016000750300087503000875030008750300088F
:1001700075030008750300087503000800000000FF
:1001800000000000750300080000000000000000EF
:10019000750300080000000000000000750300085F
:1001A00000000000000000000000000075030008CF
:1001B000750300087503000875030008750300083F
:0401C00075030008BB
:1001C40010B5054C237833B9044B13B10448AFF38D
:1001D40000800123237010BD0800002000000000EF
:1001E4008C04000808B5034B1BB103490348AFF363
:1001F400008008BD000000000C0000208C040008F2
:10020400274B1A6842F480221A601A6842F480323A
:100214001A601A689203FCD5196C224A224841F0EC
:1002240080511964116841F440411160116841F42E
:1002340080311160016841F4E06141F00501016021
:10024400596841F480015960596841F004015960CA
:10025400596841F43451596059685960196841F03A
:10026400807102F5E432196013689B01FCD5936830
:10027400936093680A4943F4A0539360936843F4EA
:1002840000439360936843F0020393608B6803F028
:100294000C03082BFAD1054B054A1A60704700BFBE
:1002A4000038024000700040003C02400000002082
:1002B4000095BA0A08B5FFF7A3FF114A1149136B59
:1002C40043F0010313630B6823F440630B600B6872
:1002D40043F480630B608A690B4B42F020028A610D
:1002E40000BF1A46013B002AFAD18A69064B42F440
:1002F40000128A6100BF1A46013B002AFAD1EAE7DC
:1003040000380240000002403F4B4C00034AD2F840
:10031400883043F47003C2F88830704700ED00E081
:10032400DFF834D0FFF7F2FF0C480D490D4A0023E3
:1003340002E0D458C4500433C4188C42F9D30A4A96
:100344000A4C002301E013600432A242FBD300F004
:1003540011F8FFF7AFFF70470000022000000020F3
:1003640008000020B004000808000020BC010020A0
:10037400FEE7000070B50D4D0D4C641BA410002663
:10038400A64209D10B4D0C4C00F07EF8641BA4105E
:100394000026A64205D170BD55F8043B98470136A6
:1003A400EEE755F8043B98470136F2E7A404000849
:1003B400A4040008A4040008AC04000870477047B3
:1003C400024B13B1024800F005B87047000000006A
:1003D400E5030008002301461A46184600F014B845
:1003E40038B5074D074C641BA4101CB9BDE8384050
:1003F40000F050B8013C55F824309847F5E700BFA9
:10040400AC040008B00400082DE9F047DFF874A03C
:100414000646DAF8000098460F469146FFF7CEFFED
:10042400164B1C680CB9164C1C606568DAF80000A1
:100434001F2D05DDFFF7C3FF4FF0FF30BDE8F08748
:100444009EB104EB85010122C1F88890D4F888316B
:10045400AA401343C4F88831022EC1F8088102BFB0
:10046400D4F88C311343C4F88C316B1C02356360AF
:1004740044F82570FFF7A3FF0020DFE728000020E1
:100484002C00002004000020F8B500BFF8BC08BC14
:100494009E467047F8B500BFF8BC08BC9E4670473E
:0804A400C5030008E90100088E
:0404AC00C50100087E
:0804B0000024F40024000020E8
:0400000508000325C7
:00000001FF
