:020000040800F2
:10000000000002207D040008CD040008CD04000893
:10001000CD040008CD040008CD0400080000000055
:10002000000000000000000000000000CD040008F7
:10003000CD04000800000000CD040008CD04000835
:10004000CD040008CD040008CD040008CD0400084C
:10005000CD040008CD040008CD040008CD0400083C
:10006000CD040008CD040008CD040008CD0400082C
:10007000CD040008CD040008CD040008CD0400081C
:10008000CD040008CD040008CD040008CD0400080C
:10009000CD040008CD040008CD040008CD040008FC
:1000A000CD040008CD040008CD040008CD040008EC
:1000B000CD040008CD040008CD040008CD040008DC
:1000C000CD040008CD040008CD040008CD040008CC
:1000D000CD040008CD040008CD040008CD040008BC
:1000E000CD040008CD040008CD040008CD040008AC
:1000F000CD040008CD040008CD040008CD0400089C
:10010000CD040008CD040008CD040008CD0400088B
:10011000CD040008CD040008CD040008CD0400087B
:10012000CD040008CD040008CD040008CD0400086B
:10013000CD0400080000000000000000CD0400080D
:10014000CD040008CD040008CD040008CD0400084B
:10015000CD040008CD040008CD040008CD0400083B
:10016000CD040008CD040008CD040008CD0400082B
:10017000CD040008CD040008CD04000800000000F4
:1001800000000000CD040008000000000000000096
:10019000CD0400080000000000000000CD040008AD
:1001A000000000000000000000000000CD04000876
:1001B000CD040008CD040008CD040008CD040008DB
:0401C000CD04000862
:1001C40010B5054C237833B9044B13B10448AFF38D
:1001D40000800123237010BD0800002000000000EF
:1001E400E405000808B5034B1BB103490348AFF30A
:1001F400008008BD000000000C000020E405000899
:1002040008B500F00FF800F067F8012000F01EF9BF
:10021400012000F00FF94FF47A7000F0EDF800F0CF
:10022400E3F8FEE7274B1A6842F480221A601A6842
:1002340042F480321A601A689203FCD5196C224A7F
:10024400224841F080511964116841F44041116021
:10025400116841F480311160016841F4E06141F0BA
:1002640005010160596841F480015960596841F001
:1002740004015960596841F434515960596859600E
:10028400196841F0807102F5E432196013689B012A
:10029400FCD59368936093680A4943F4A053936030
:1002A400936843F400439360936843F002039360BC
:1002B4008B6803F00C03082BFAD1054B054A1A602E
:1002C400704700BF0038024000700040003C02400C
:1002D400000000200095BA0A404A4149106B414B86
:1002E40040F0010010B41063106B40F00200106382
:1002F400106C40F002001064086820F4405008605C
:100304000C6844F400540C600C6A24F070640C62B1
:100314000C6A44F000740C624C6824F040044C6095
:100324008C6844F440548C60CC6824F44054CC6011
:10033400196821F003011960196841F0010119607D
:10034400596821F001015960996841F003019960ED
:10035400D96821F00301D960196821F00C011960F2
:10036400196841F004011960596821F002015960CB
:10037400996841F00C019960D96821F00C01D960A9
:100384009969A2F50D3241F002019961592440F2B4
:10039400E733002010609462D362D36A5DF8044BA3
:1003A40001210B44CB405363936923F0730393619E
:1003B400936943F060039361936943F00803936185
:1003C400136A23F002031362136A0B431362136864
:1003D40043F0800313605161704700BF003802404E
:1003E4000000024000040240024A136843F0010383
:1003F400136070470004004088B10C4B98420BD83E
:10040400B3FBF0F3591E89B2C3F34F03084A01202A
:10041400D16253635061704700210B46F6E7044AEA
:10042400136823F001031360704700BF40420F00BC
:1004340000040040044B10B101229A6170474FF44C
:1004440080329A61704700BF00040240044B18B127
:100454004FF400329A61704702229A61704700BFDC
:1004640000040240034AD2F8883043F47003C2F80F
:100474008830704700ED00E0DFF834D0FFF7F2FF7A
:100484000C480D490D4A002302E0D458C4500433EB
:10049400C4188C42F9D30A4A0A4C002301E01360C1
:1004A4000432A242FBD300F011F8FFF7A9FE704713
:1004B40000000220000000200800002008060008B8
:1004C40008000020BC010020FEE7000070B50D4DBF
:1004D4000D4C641BA4100026A64209D10B4D0C4CF4
:1004E40000F07EF8641BA4100026A64205D170BD5E
:1004F40055F8043B98470136EEE755F8043B984716
:100504000136F2E7FC050008FC050008FC050008BC
:100514000406000870477047024B13B1024800F00C
:1005240005B87047000000003D050008002301469F
:100534001A46184600F014B838B5074D074C641B2A
:10054400A4101CB9BDE8384000F050B8013C55F87F
:1005540024309847F5E700BF0406000808060008A1
:100564002DE9F047DFF874A00646DAF80000984653
:100574000F469146FFF7CEFF164B1C680CB9164C7C
:100584001C606568DAF800001F2D05DDFFF7C3FF66
:100594004FF0FF30BDE8F0879EB104EB85010122E6
:1005A400C1F88890D4F88831AA401343C4F888313C
:1005B400022EC1F8088102BFD4F88C311343C4F869
:1005C4008C316B1C0235636044F82570FFF7A3FF80
:1005D4000020DFE7280000202C0000200400002079
:1005E400F8B500BFF8BC08BC9E467047F8B500BF1C
:0805F400F8BC08BC9E467047EC
:0805FC001D050008E9010008DB
:04060400C501000824
:080608000024F400240000208E
:040000050800047D6E
:00000001FF
